{
  "contractName": "FruitShop",
  "abi": [
    {
      "inputs": [
        {
          "internalType": "uint256",
          "name": "_count",
          "type": "uint256"
        }
      ],
      "name": "buyApple",
      "outputs": [],
      "stateMutability": "payable",
      "type": "function",
      "payable": true
    },
    {
      "inputs": [
        {
          "internalType": "uint256",
          "name": "_count",
          "type": "uint256"
        }
      ],
      "name": "buyBanana",
      "outputs": [],
      "stateMutability": "payable",
      "type": "function",
      "payable": true
    },
    {
      "inputs": [
        {
          "internalType": "uint256",
          "name": "_count",
          "type": "uint256"
        }
      ],
      "name": "buyCherry",
      "outputs": [],
      "stateMutability": "payable",
      "type": "function",
      "payable": true
    },
    {
      "inputs": [
        {
          "internalType": "uint256",
          "name": "applePrice",
          "type": "uint256"
        },
        {
          "internalType": "uint256",
          "name": "_count",
          "type": "uint256"
        }
      ],
      "name": "sellApple",
      "outputs": [],
      "stateMutability": "payable",
      "type": "function",
      "payable": true
    },
    {
      "inputs": [
        {
          "internalType": "uint256",
          "name": "bananaPrice",
          "type": "uint256"
        },
        {
          "internalType": "uint256",
          "name": "_count",
          "type": "uint256"
        }
      ],
      "name": "sellBanana",
      "outputs": [],
      "stateMutability": "payable",
      "type": "function",
      "payable": true
    },
    {
      "inputs": [
        {
          "internalType": "uint256",
          "name": "cherryPrice",
          "type": "uint256"
        },
        {
          "internalType": "uint256",
          "name": "_count",
          "type": "uint256"
        }
      ],
      "name": "sellCherry",
      "outputs": [],
      "stateMutability": "payable",
      "type": "function",
      "payable": true
    },
    {
      "inputs": [],
      "name": "getApple",
      "outputs": [
        {
          "internalType": "uint256",
          "name": "",
          "type": "uint256"
        }
      ],
      "stateMutability": "view",
      "type": "function",
      "constant": true
    },
    {
      "inputs": [],
      "name": "getBanana",
      "outputs": [
        {
          "internalType": "uint256",
          "name": "",
          "type": "uint256"
        }
      ],
      "stateMutability": "view",
      "type": "function",
      "constant": true
    },
    {
      "inputs": [],
      "name": "getCherry",
      "outputs": [
        {
          "internalType": "uint256",
          "name": "",
          "type": "uint256"
        }
      ],
      "stateMutability": "view",
      "type": "function",
      "constant": true
    }
  ],
  "bytecode": "0x608060405234801561001057600080fd5b5061086b806100206000396000f3fe6080604052600436106100865760003560e01c80632f0e26f0116100595780632f0e26f01461010a578063526bab1e14610126578063805f220114610151578063a3fae6ad1461016d578063e62e74ae1461018957610086565b806303e607311461008b5780630ba391bc146100a7578063143fe5a5146100c35780632b92f62c146100ee575b600080fd5b6100a560048036038101906100a091906106c5565b6101b4565b005b6100c160048036038101906100bc91906106f2565b61020d565b005b3480156100cf57600080fd5b506100d861030b565b6040516100e59190610741565b60405180910390f35b610108600480360381019061010391906106c5565b610351565b005b610124600480360381019061011f91906106c5565b6103a9565b005b34801561013257600080fd5b5061013b610402565b6040516101489190610741565b60405180910390f35b61016b600480360381019061016691906106f2565b610449565b005b610187600480360381019061018291906106f2565b610545565b005b34801561019557600080fd5b5061019e610643565b6040516101ab9190610741565b60405180910390f35b80600160003373ffffffffffffffffffffffffffffffffffffffff1673ffffffffffffffffffffffffffffffffffffffff1681526020019081526020016000206000828254610203919061078b565b9250508190555050565b80600260003373ffffffffffffffffffffffffffffffffffffffff1673ffffffffffffffffffffffffffffffffffffffff16815260200190815260200160002054101561025957600080fd5b6000828261026791906107bf565b905081600260003373ffffffffffffffffffffffffffffffffffffffff1673ffffffffffffffffffffffffffffffffffffffff16815260200190815260200160002060008282546102b89190610801565b925050819055503373ffffffffffffffffffffffffffffffffffffffff166108fc829081150290604051600060405180830381858888f19350505050158015610305573d6000803e3d6000fd5b50505050565b60008060003373ffffffffffffffffffffffffffffffffffffffff1673ffffffffffffffffffffffffffffffffffffffff16815260200190815260200160002054905090565b806000803373ffffffffffffffffffffffffffffffffffffffff1673ffffffffffffffffffffffffffffffffffffffff168152602001908152602001600020600082825461039f919061078b565b9250508190555050565b80600260003373ffffffffffffffffffffffffffffffffffffffff1673ffffffffffffffffffffffffffffffffffffffff16815260200190815260200160002060008282546103f8919061078b565b9250508190555050565b6000600160003373ffffffffffffffffffffffffffffffffffffffff1673ffffffffffffffffffffffffffffffffffffffff16815260200190815260200160002054905090565b806000803373ffffffffffffffffffffffffffffffffffffffff1673ffffffffffffffffffffffffffffffffffffffff16815260200190815260200160002054101561049457600080fd5b600082826104a291906107bf565b9050816000803373ffffffffffffffffffffffffffffffffffffffff1673ffffffffffffffffffffffffffffffffffffffff16815260200190815260200160002060008282546104f29190610801565b925050819055503373ffffffffffffffffffffffffffffffffffffffff166108fc829081150290604051600060405180830381858888f1935050505015801561053f573d6000803e3d6000fd5b50505050565b80600160003373ffffffffffffffffffffffffffffffffffffffff1673ffffffffffffffffffffffffffffffffffffffff16815260200190815260200160002054101561059157600080fd5b6000828261059f91906107bf565b905081600160003373ffffffffffffffffffffffffffffffffffffffff1673ffffffffffffffffffffffffffffffffffffffff16815260200190815260200160002060008282546105f09190610801565b925050819055503373ffffffffffffffffffffffffffffffffffffffff166108fc829081150290604051600060405180830381858888f1935050505015801561063d573d6000803e3d6000fd5b50505050565b6000600260003373ffffffffffffffffffffffffffffffffffffffff1673ffffffffffffffffffffffffffffffffffffffff16815260200190815260200160002054905090565b600080fd5b6000819050919050565b6106a28161068f565b81146106ad57600080fd5b50565b6000813590506106bf81610699565b92915050565b6000602082840312156106db576106da61068a565b5b60006106e9848285016106b0565b91505092915050565b600080604083850312156107095761070861068a565b5b6000610717858286016106b0565b9250506020610728858286016106b0565b9150509250929050565b61073b8161068f565b82525050565b60006020820190506107566000830184610732565b92915050565b7f4e487b7100000000000000000000000000000000000000000000000000000000600052601160045260246000fd5b60006107968261068f565b91506107a18361068f565b92508282019050808211156107b9576107b861075c565b5b92915050565b60006107ca8261068f565b91506107d58361068f565b92508282026107e38161068f565b915082820484148315176107fa576107f961075c565b5b5092915050565b600061080c8261068f565b91506108178361068f565b925082820390508181111561082f5761082e61075c565b5b9291505056fea26469706673582212202839dfd28daf8533b7b3a36ecde97c50f82dd12c66d19995719696bc635cb81f64736f6c63430008110033",
  "immutableReferences": {},
  "source": "// SPDX-License-Identifier: MIT\r\npragma solidity ^0.8.17;\r\n\r\ncontract FruitShop {\r\n    mapping(address => uint256) myApple;\r\n    mapping(address => uint256) myBanana;\r\n    mapping(address => uint256) myCherry;\r\n\r\n    function buyApple(uint256 _count) public payable {\r\n        myApple[msg.sender] += _count;\r\n    }\r\n    function buyBanana(uint256 _count) public payable {\r\n        myBanana[msg.sender] += _count;\r\n    }\r\n    function buyCherry(uint256 _count) public payable {\r\n        myCherry[msg.sender] += _count;\r\n    }\r\n\r\n    function sellApple(uint256 applePrice, uint256 _count) public payable {\r\n        require(myApple[msg.sender] >= _count);\r\n        uint256 refund = _count * applePrice;\r\n        myApple[msg.sender] -= _count;\r\n        payable(msg.sender).transfer(refund);\r\n    }\r\n    function sellBanana(uint256 bananaPrice, uint256 _count) public payable {\r\n        require(myBanana[msg.sender] >= _count);\r\n        uint256 refund = _count * bananaPrice;\r\n        myBanana[msg.sender] -= _count;\r\n        payable(msg.sender).transfer(refund);\r\n    }\r\n    function sellCherry(uint256 cherryPrice, uint256 _count) public payable {\r\n        require(myCherry[msg.sender] >= _count);\r\n        uint256 refund = _count * cherryPrice;\r\n        myCherry[msg.sender] -= _count;\r\n        payable(msg.sender).transfer(refund);\r\n    }\r\n\r\n    function getApple() view public returns (uint256){\r\n        return myApple[msg.sender];\r\n    }\r\n    function getBanana() view public returns (uint256){\r\n        return myBanana[msg.sender];\r\n    }\r\n    function getCherry() view public returns (uint256){\r\n        return myCherry[msg.sender];\r\n    }\r\n}",
  "sourcePath": "C:\\Users\\Seok\\Desktop\\\\22 11\\20221130 \\contracts\\FruitShop.sol",
  "compiler": {
    "name": "solc",
    "version": "0.8.17+commit.8df45f5f.Emscripten.clang"
  },
  "schemaVersion": "3.4.11",
  "updatedAt": "2022-12-01T00:12:30.475Z",
  "networkType": "ethereum",
  "devdoc": {
    "kind": "dev",
    "methods": {},
    "version": 1
  },
  "userdoc": {
    "kind": "user",
    "methods": {},
    "version": 1
  }
}