{
  "contractName": "Token",
  "abi": [
    {
      "inputs": [],
      "stateMutability": "nonpayable",
      "type": "constructor"
    },
    {
      "inputs": [
        {
          "internalType": "address",
          "name": "",
          "type": "address"
        },
        {
          "internalType": "address",
          "name": "",
          "type": "address"
        }
      ],
      "name": "allowed",
      "outputs": [
        {
          "internalType": "uint256",
          "name": "",
          "type": "uint256"
        }
      ],
      "stateMutability": "view",
      "type": "function",
      "constant": true
    },
    {
      "inputs": [
        {
          "internalType": "address",
          "name": "",
          "type": "address"
        }
      ],
      "name": "balances",
      "outputs": [
        {
          "internalType": "uint256",
          "name": "",
          "type": "uint256"
        }
      ],
      "stateMutability": "view",
      "type": "function",
      "constant": true
    },
    {
      "inputs": [],
      "name": "decimals",
      "outputs": [
        {
          "internalType": "uint8",
          "name": "",
          "type": "uint8"
        }
      ],
      "stateMutability": "view",
      "type": "function",
      "constant": true
    },
    {
      "inputs": [],
      "name": "name",
      "outputs": [
        {
          "internalType": "string",
          "name": "",
          "type": "string"
        }
      ],
      "stateMutability": "view",
      "type": "function",
      "constant": true
    },
    {
      "inputs": [],
      "name": "symbol",
      "outputs": [
        {
          "internalType": "string",
          "name": "",
          "type": "string"
        }
      ],
      "stateMutability": "view",
      "type": "function",
      "constant": true
    },
    {
      "inputs": [],
      "name": "totalSupply",
      "outputs": [
        {
          "internalType": "uint256",
          "name": "",
          "type": "uint256"
        }
      ],
      "stateMutability": "view",
      "type": "function",
      "constant": true
    },
    {
      "inputs": [
        {
          "internalType": "address",
          "name": "owner",
          "type": "address"
        }
      ],
      "name": "balanceOf",
      "outputs": [
        {
          "internalType": "uint256",
          "name": "balance",
          "type": "uint256"
        }
      ],
      "stateMutability": "view",
      "type": "function",
      "constant": true
    },
    {
      "inputs": [
        {
          "internalType": "address",
          "name": "to",
          "type": "address"
        },
        {
          "internalType": "uint256",
          "name": "value",
          "type": "uint256"
        }
      ],
      "name": "transfer",
      "outputs": [
        {
          "internalType": "bool",
          "name": "success",
          "type": "bool"
        }
      ],
      "stateMutability": "nonpayable",
      "type": "function"
    },
    {
      "inputs": [
        {
          "internalType": "address",
          "name": "from",
          "type": "address"
        },
        {
          "internalType": "address",
          "name": "to",
          "type": "address"
        },
        {
          "internalType": "uint256",
          "name": "value",
          "type": "uint256"
        }
      ],
      "name": "transferFrom",
      "outputs": [
        {
          "internalType": "bool",
          "name": "success",
          "type": "bool"
        }
      ],
      "stateMutability": "nonpayable",
      "type": "function"
    }
  ],
  "bytecode": "0x60806040526040518060400160405280600981526020017f73656f6b546f6b656e0000000000000000000000000000000000000000000000815250600290816200004a9190620003b3565b506040518060400160405280600381526020017f53544b000000000000000000000000000000000000000000000000000000000081525060039081620000919190620003b3565b506012600460006101000a81548160ff021916908360ff160217905550600460009054906101000a900460ff16600a620000cc91906200062a565b633b9aca00620000dd91906200067b565b600555348015620000ed57600080fd5b506005546000803373ffffffffffffffffffffffffffffffffffffffff1673ffffffffffffffffffffffffffffffffffffffff16815260200190815260200160002081905550620006c6565b600081519050919050565b7f4e487b7100000000000000000000000000000000000000000000000000000000600052604160045260246000fd5b7f4e487b7100000000000000000000000000000000000000000000000000000000600052602260045260246000fd5b60006002820490506001821680620001bb57607f821691505b602082108103620001d157620001d062000173565b5b50919050565b60008190508160005260206000209050919050565b60006020601f8301049050919050565b600082821b905092915050565b6000600883026200023b7fffffffffffffffffffffffffffffffffffffffffffffffffffffffffffffffff82620001fc565b620002478683620001fc565b95508019841693508086168417925050509392505050565b6000819050919050565b6000819050919050565b6000620002946200028e62000288846200025f565b62000269565b6200025f565b9050919050565b6000819050919050565b620002b08362000273565b620002c8620002bf826200029b565b84845462000209565b825550505050565b600090565b620002df620002d0565b620002ec818484620002a5565b505050565b5b81811015620003145762000308600082620002d5565b600181019050620002f2565b5050565b601f82111562000363576200032d81620001d7565b6200033884620001ec565b8101602085101562000348578190505b620003606200035785620001ec565b830182620002f1565b50505b505050565b600082821c905092915050565b6000620003886000198460080262000368565b1980831691505092915050565b6000620003a3838362000375565b9150826002028217905092915050565b620003be8262000139565b67ffffffffffffffff811115620003da57620003d962000144565b5b620003e68254620001a2565b620003f382828562000318565b600060209050601f8311600181146200042b576000841562000416578287015190505b62000422858262000395565b86555062000492565b601f1984166200043b86620001d7565b60005b8281101562000465578489015182556001820191506020850194506020810190506200043e565b8683101562000485578489015162000481601f89168262000375565b8355505b6001600288020188555050505b505050505050565b7f4e487b7100000000000000000000000000000000000000000000000000000000600052601160045260246000fd5b60008160011c9050919050565b6000808291508390505b600185111562000528578086048111156200050057620004ff6200049a565b5b6001851615620005105780820291505b80810290506200052085620004c9565b9450620004e0565b94509492505050565b60008262000543576001905062000616565b8162000553576000905062000616565b81600181146200056c57600281146200057757620005ad565b600191505062000616565b60ff8411156200058c576200058b6200049a565b5b8360020a915084821115620005a657620005a56200049a565b5b5062000616565b5060208310610133831016604e8410600b8410161715620005e75782820a905083811115620005e157620005e06200049a565b5b62000616565b620005f68484846001620004d6565b9250905081840481111562000610576200060f6200049a565b5b81810290505b9392505050565b600060ff82169050919050565b600062000637826200025f565b915062000644836200061d565b9250620006737fffffffffffffffffffffffffffffffffffffffffffffffffffffffffffffffff848462000531565b905092915050565b600062000688826200025f565b915062000695836200025f565b9250828202620006a5816200025f565b91508282048414831517620006bf57620006be6200049a565b5b5092915050565b610a5f80620006d66000396000f3fe608060405234801561001057600080fd5b50600436106100935760003560e01c8063313ce56711610066578063313ce567146101345780635c6581651461015257806370a082311461018257806395d89b41146101b2578063a9059cbb146101d057610093565b806306fdde031461009857806318160ddd146100b657806323b872dd146100d457806327e235e314610104575b600080fd5b6100a0610200565b6040516100ad91906106e0565b60405180910390f35b6100be61028e565b6040516100cb919061071b565b60405180910390f35b6100ee60048036038101906100e991906107c5565b610294565b6040516100fb9190610833565b60405180910390f35b61011e6004803603810190610119919061084e565b610429565b60405161012b919061071b565b60405180910390f35b61013c610441565b6040516101499190610897565b60405180910390f35b61016c600480360381019061016791906108b2565b610454565b604051610179919061071b565b60405180910390f35b61019c6004803603810190610197919061084e565b610479565b6040516101a9919061071b565b60405180910390f35b6101ba6104c1565b6040516101c791906106e0565b60405180910390f35b6101ea60048036038101906101e591906108f2565b61054f565b6040516101f79190610833565b60405180910390f35b6002805461020d90610961565b80601f016020809104026020016040519081016040528092919081815260200182805461023990610961565b80156102865780601f1061025b57610100808354040283529160200191610286565b820191906000526020600020905b81548152906001019060200180831161026957829003601f168201915b505050505081565b60055481565b6000816000803373ffffffffffffffffffffffffffffffffffffffff1673ffffffffffffffffffffffffffffffffffffffff1681526020019081526020016000205410156102e157600080fd5b816000803373ffffffffffffffffffffffffffffffffffffffff1673ffffffffffffffffffffffffffffffffffffffff168152602001908152602001600020600082825461032f91906109c1565b92505081905550816000808573ffffffffffffffffffffffffffffffffffffffff1673ffffffffffffffffffffffffffffffffffffffff168152602001908152602001600020600082825461038491906109f5565b9250508190555081600160008673ffffffffffffffffffffffffffffffffffffffff1673ffffffffffffffffffffffffffffffffffffffff16815260200190815260200160002060008573ffffffffffffffffffffffffffffffffffffffff1673ffffffffffffffffffffffffffffffffffffffff168152602001908152602001600020600082825461041791906109c1565b92505081905550600190509392505050565b60006020528060005260406000206000915090505481565b600460009054906101000a900460ff1681565b6001602052816000526040600020602052806000526040600020600091509150505481565b60008060008373ffffffffffffffffffffffffffffffffffffffff1673ffffffffffffffffffffffffffffffffffffffff168152602001908152602001600020549050919050565b600380546104ce90610961565b80601f01602080910402602001604051908101604052809291908181526020018280546104fa90610961565b80156105475780601f1061051c57610100808354040283529160200191610547565b820191906000526020600020905b81548152906001019060200180831161052a57829003601f168201915b505050505081565b6000816000803373ffffffffffffffffffffffffffffffffffffffff1673ffffffffffffffffffffffffffffffffffffffff16815260200190815260200160002054101561059c57600080fd5b816000803373ffffffffffffffffffffffffffffffffffffffff1673ffffffffffffffffffffffffffffffffffffffff16815260200190815260200160002060008282546105ea91906109c1565b92505081905550816000808573ffffffffffffffffffffffffffffffffffffffff1673ffffffffffffffffffffffffffffffffffffffff168152602001908152602001600020600082825461063f91906109f5565b925050819055506001905092915050565b600081519050919050565b600082825260208201905092915050565b60005b8381101561068a57808201518184015260208101905061066f565b60008484015250505050565b6000601f19601f8301169050919050565b60006106b282610650565b6106bc818561065b565b93506106cc81856020860161066c565b6106d581610696565b840191505092915050565b600060208201905081810360008301526106fa81846106a7565b905092915050565b6000819050919050565b61071581610702565b82525050565b6000602082019050610730600083018461070c565b92915050565b600080fd5b600073ffffffffffffffffffffffffffffffffffffffff82169050919050565b60006107668261073b565b9050919050565b6107768161075b565b811461078157600080fd5b50565b6000813590506107938161076d565b92915050565b6107a281610702565b81146107ad57600080fd5b50565b6000813590506107bf81610799565b92915050565b6000806000606084860312156107de576107dd610736565b5b60006107ec86828701610784565b93505060206107fd86828701610784565b925050604061080e868287016107b0565b9150509250925092565b60008115159050919050565b61082d81610818565b82525050565b60006020820190506108486000830184610824565b92915050565b60006020828403121561086457610863610736565b5b600061087284828501610784565b91505092915050565b600060ff82169050919050565b6108918161087b565b82525050565b60006020820190506108ac6000830184610888565b92915050565b600080604083850312156108c9576108c8610736565b5b60006108d785828601610784565b92505060206108e885828601610784565b9150509250929050565b6000806040838503121561090957610908610736565b5b600061091785828601610784565b9250506020610928858286016107b0565b9150509250929050565b7f4e487b7100000000000000000000000000000000000000000000000000000000600052602260045260246000fd5b6000600282049050600182168061097957607f821691505b60208210810361098c5761098b610932565b5b50919050565b7f4e487b7100000000000000000000000000000000000000000000000000000000600052601160045260246000fd5b60006109cc82610702565b91506109d783610702565b92508282039050818111156109ef576109ee610992565b5b92915050565b6000610a0082610702565b9150610a0b83610702565b9250828201905080821115610a2357610a22610992565b5b9291505056fea264697066735822122047b241e3bfd115d102bb96408236b32d339748f803578f8d8be8baed57ea94bc64736f6c63430008110033",
  "immutableReferences": {},
  "source": "// SPDX-License-Identifier: MIT\r\npragma solidity ^0.8.17;\r\n\r\ncontract Token {\r\n    mapping(address => uint256) public balances;\r\n    mapping(address => mapping(address => uint256)) public allowed;\r\n    // address , uint256 \r\n    //       \r\n    string public name = \"seokToken\"; //  \r\n    string public symbol = \"STK\"; //  \r\n    uint8 public decimals = 18; //  \r\n    uint256 public totalSupply = 1000000000 * 10 ** decimals; // \r\n    //      \r\n    \r\n    constructor() {\r\n        balances[msg.sender] = totalSupply; //   EOA   \r\n    }\r\n\r\n    function balanceOf(address owner) public view returns(uint256 balance) {\r\n        return balances[owner];\r\n    }\r\n    \r\n    function transfer(address to, uint256 value) public returns(bool success) {\r\n        // require()   true  false \r\n        require(balances[msg.sender] >= value);\r\n        balances[msg.sender] -= value;\r\n        balances[to] += value;\r\n\r\n        return true;\r\n    }\r\n\r\n    function transferFrom(address from, address to, uint256 value) public returns(bool success){\r\n    \r\n    require(balances[msg.sender] >= value);\r\n        balances[msg.sender] -= value;\r\n        balances[to] += value;\r\n        allowed[from][to] -= value;\r\n\r\n        return true;\r\n    }\r\n}",
  "sourcePath": "C:\\Users\\Seok\\Desktop\\\\22 11\\20221129\\contracts\\Token.sol",
  "compiler": {
    "name": "solc",
    "version": "0.8.17+commit.8df45f5f.Emscripten.clang"
  },
  "schemaVersion": "3.4.11",
  "updatedAt": "2022-11-29T05:18:22.865Z",
  "networkType": "ethereum",
  "devdoc": {
    "kind": "dev",
    "methods": {},
    "version": 1
  },
  "userdoc": {
    "kind": "user",
    "methods": {},
    "version": 1
  }
}